:100000000C943E000C945B000C945B000C945B0021
:100010000C945B000C945B000C945B000C945B00F4
:100020000C945B000C945B000C945B000C945B00E4
:100030000C945B000C945B000C945B000C945B00D4
:100040000C945B000C945B000C9438030C945B00E4
:100050000C942E020C9494020C945B000C945B00A4
:100060000C945B000C945B000C945B000C945B00A4
:100070000C9461020C94E6020C945B0011241FBEE8
:10008000CFEFD0E1DEBFCDBF11E0A0E0B1E0E6E808
:10009000F7E002C005900D92AA33B107D9F726E028
:1000A000AAE3B1E001C01D92A639B207E1F70E94B0
:1000B0005D000C94C1030C9400006894EE24E1F8F8
:1000C00001E028E041E060E875E280E090E00E9415
:1000D0007E0028E041E060E875E280E090E00E9468
:1000E000010180E091E00E949C0185E191E00E9485
:1000F000F1018AE291E00E949C01FFCF8F929F92D2
:10010000AF92BF92EF920F93CF934B015C01C22F3E
:100110004130B9F460E271EA87E090E0A501940112
:100120000E949303DA01C9010197A109B109892F3E
:100130009A2FAB2FBB278093C50021502093C4007A
:100140001BC0E0ECF0E080818260808360E472E4B8
:100150008FE090E0A50194010E949303DA01C901A8
:100160000197A109B109892F9A2FAB2FBB27809343
:10017000C50021502093C40088ED8093C100023057
:10018000A9F5E2ECF0E0808188608083C63021F43C
:100190008081826080830CC0C73051F4E2ECF0E0D3
:1001A00080818460808386E0808380818E6080830C
:1001B00081E0E81206C0E2ECF0E08081806280839A
:1001C00007C0E11005C0E2ECF0E08081806380832D
:1001D00078948FEC97E00197F1F700C0000009C018
:1001E000E2ECF0E0808182608083E2CFC630A1F64D
:1001F000F7CFCF910F91EF90BF90AF909F908F90DE
:1002000008958F929F92AF92BF92EF920F93CF93E8
:100210004B015C01C22F4130B9F460E271EA87E022
:1002200090E0A50194010E949303DA01C9010197AE
:10023000A109B109892F9A2FAB2FBB278093CD003D
:1002400021502093CC001BC0E8ECF0E0808182605C
:10025000808360E472E48FE090E0A50194010E9445
:100260009303DA01C9010197A109B109892F9A2FD6
:10027000AB2FBB278093CD0021502093CC0088ED7D
:100280008093C9000230A9F5EAECF0E08081886033
:100290008083C63021F48081826080830CC0C730A7
:1002A00051F4EAECF0E080818460808386E0808312
:1002B00080818E60808381E0E81206C0EAECF0E085
:1002C00080818062808307C0E11005C0EAECF0E025
:1002D00080818063808378948FEC97E00197F1F7B9
:1002E00000C0000009C0EAECF0E0808182608083F9
:1002F000E2CFC630A1F6F7CFCF910F91EF90BF902C
:10030000AF909F908F90089520919405309195051E
:10031000F901E257FB4F80832F5F3F4F2F3F31059D
:1003200009F028F4309395052093940508951092D0
:100330009505109294050895EF92FF920F931F93E5
:10034000CF93DF938C011092930510929205109237
:100350009505109294057C01C0E0D0E006C0D7015D
:100360008D917D010E9484012196F8010190002069
:10037000E9F73197E01BF10BCE17DF0780F380E040
:1003800091E0EEE8F3E0DF019C011D922150304046
:10039000E1F78091C00085FF05C0E1ECF0E08081CD
:1003A00080628083DF91CF911F910F91FF90EF903A
:1003B000089520914A0330914B03F901EC5BFD4F06
:1003C00080832F5F3F4F2F3F310509F028F4309392
:1003D0004B0320934A03089510924B0310924A0353
:1003E0000895EF92FF920F931F93CF93DF938C01A9
:1003F000109249031092480310924B0310924A0343
:100400007C01C0E0D0E006C0D7018D917D010E9443
:10041000D9012196F80101900020E9F73197E01BFE
:10042000F10BCE17DF0780F380E091E0E4E4F1E028
:10043000DF019C011D9221503040E1F78091C800FE
:1004400085FF05C0E9ECF0E0808180628083DF9168
:10045000CF911F910F91FF90EF9008951F920F92EF
:100460000FB60F9211242F938F939F93EF93FF93C7
:10047000E0ECF0E080818823ECF78091900590918A
:1004800091052091C600FC01E257FC4F20832223F6
:1004900071F001968F3F910509F028F49093910532
:1004A0008093900504C01092910510929005FF91E1
:1004B000EF919F918F912F910F900FBE0F901F90F2
:1004C00018951F920F920FB60F9211242F938F93AE
:1004D0009F93EF93FF93E8ECF0E080818823ECF7A3
:1004E00080914603909147032091CE00FC01EC5B84
:1004F000FE4F2083222371F001968F3F910509F072
:1005000028F4909347038093460304C01092470356
:1005100010924603FF91EF919F918F912F910F9031
:100520000FBE0F901F9018951F920F920FB60F924B
:1005300011242F933F938F939F93EF93FF93809179
:10054000920590919305209194053091950582171D
:10055000930739F1FC01E257FB4F20812223D9F0A8
:100560002093C6008FE097E20197F1F700C00000EA
:10057000809192059091930501968F3F910509F026
:1005800028F4909393058093920515C010929305DB
:100590001092920510C00196909393058093920556
:1005A0000AC0E1ECF0E080818F7D8083E0ECF0E038
:1005B00080818F7D8083FF91EF919F918F913F91FB
:1005C0002F910F900FBE0F901F9018951F920F92B2
:1005D0000FB60F9211242F933F938F939F93EF9316
:1005E000FF93809148039091490320914A033091F1
:1005F0004B038217930739F1FC01EC5BFD4F20811F
:100600002223D9F02093CE008FE097E20197F1F7F3
:1006100000C00000809148039091490301968F3FEC
:10062000910509F028F4909349038093480315C07D
:10063000109249031092480310C001969093490309
:10064000809348030AC0E9ECF0E080818F7D8083CD
:10065000E8ECF0E080818F7D8083FF91EF919F91A6
:100660008F913F912F910F900FBE0F901F90189573
:100670001F920F920FB60F9211242F933F934F9317
:100680005F936F937F938F939F93AF93EF93FF93BA
:10069000E0913A01F0913B01E650FF4FF0933B01AE
:1006A000E0933A01E53F81E0F80768F120913C01D1
:1006B00030913D0140913E0150913F0160914001D8
:1006C000709141018091420190914301A1E00E940B
:1006D000B503E45FF140E53FA1E0FA07B8F72093E6
:1006E0003C0130933D0140933E0150933F016093A4
:1006F0004001709341018093420190934301F09334
:100700003B01E0933A01FF91EF91AF919F918F915F
:100710007F916F915F914F913F912F910F900FBEFD
:100720000F901F901895A1E21A2EAA1BBB1BFD016A
:100730000DC0AA1FBB1FEE1FFF1FA217B307E407C0
:10074000F50720F0A21BB30BE40BF50B661F771F18
:10075000881F991F1A9469F76095709580959095F8
:100760009B01AC01BD01CF0108950024A7FD0094B9
:100770002A0F301D401D501D601D701D801D901DD5
:060780000895F894FFCF7C
:1007860048656C6C6F2053657269616C20554152E7
:1007960054300D0A0048656C6C6F205365726961B0
:1007A6006C2055415254310D0A0048692120497484
:0A07B6002773206D65204A4E2100D4
:00000001FF
